{
  "contractName": "BetaFaucet",
  "abi": [
    {
      "constant": true,
      "inputs": [],
      "name": "initialized",
      "outputs": [
        {
          "name": "",
          "type": "bool"
        }
      ],
      "payable": false,
      "stateMutability": "view",
      "type": "function"
    },
    {
      "constant": true,
      "inputs": [
        {
          "name": "",
          "type": "address"
        }
      ],
      "name": "sentYTKNAddresses",
      "outputs": [
        {
          "name": "",
          "type": "bool"
        }
      ],
      "payable": false,
      "stateMutability": "view",
      "type": "function"
    },
    {
      "constant": true,
      "inputs": [
        {
          "name": "",
          "type": "address"
        }
      ],
      "name": "sentEtherAddresses",
      "outputs": [
        {
          "name": "",
          "type": "bool"
        }
      ],
      "payable": false,
      "stateMutability": "view",
      "type": "function"
    },
    {
      "constant": true,
      "inputs": [],
      "name": "gasAmount",
      "outputs": [
        {
          "name": "",
          "type": "uint256"
        }
      ],
      "payable": false,
      "stateMutability": "view",
      "type": "function"
    },
    {
      "constant": false,
      "inputs": [],
      "name": "renounceOwnership",
      "outputs": [],
      "payable": false,
      "stateMutability": "nonpayable",
      "type": "function"
    },
    {
      "constant": true,
      "inputs": [],
      "name": "owner",
      "outputs": [
        {
          "name": "",
          "type": "address"
        }
      ],
      "payable": false,
      "stateMutability": "view",
      "type": "function"
    },
    {
      "constant": true,
      "inputs": [],
      "name": "ytknToken",
      "outputs": [
        {
          "name": "",
          "type": "address"
        }
      ],
      "payable": false,
      "stateMutability": "view",
      "type": "function"
    },
    {
      "constant": false,
      "inputs": [
        {
          "name": "_newOwner",
          "type": "address"
        }
      ],
      "name": "transferOwnership",
      "outputs": [],
      "payable": false,
      "stateMutability": "nonpayable",
      "type": "function"
    },
    {
      "inputs": [],
      "payable": true,
      "stateMutability": "payable",
      "type": "constructor"
    },
    {
      "payable": true,
      "stateMutability": "payable",
      "type": "fallback"
    },
    {
      "anonymous": false,
      "inputs": [
        {
          "indexed": true,
          "name": "recipient",
          "type": "address"
        },
        {
          "indexed": false,
          "name": "value",
          "type": "uint256"
        }
      ],
      "name": "EtherSent",
      "type": "event"
    },
    {
      "anonymous": false,
      "inputs": [
        {
          "indexed": true,
          "name": "recipient",
          "type": "address"
        },
        {
          "indexed": false,
          "name": "value",
          "type": "uint256"
        }
      ],
      "name": "YTKNSent",
      "type": "event"
    },
    {
      "anonymous": false,
      "inputs": [
        {
          "indexed": true,
          "name": "previousOwner",
          "type": "address"
        }
      ],
      "name": "OwnershipRenounced",
      "type": "event"
    },
    {
      "anonymous": false,
      "inputs": [
        {
          "indexed": true,
          "name": "previousOwner",
          "type": "address"
        },
        {
          "indexed": true,
          "name": "newOwner",
          "type": "address"
        }
      ],
      "name": "OwnershipTransferred",
      "type": "event"
    },
    {
      "constant": false,
      "inputs": [
        {
          "name": "_ytknToken",
          "type": "address"
        }
      ],
      "name": "initialize",
      "outputs": [],
      "payable": false,
      "stateMutability": "nonpayable",
      "type": "function"
    },
    {
      "constant": false,
      "inputs": [],
      "name": "withdrawEther",
      "outputs": [],
      "payable": false,
      "stateMutability": "nonpayable",
      "type": "function"
    },
    {
      "constant": false,
      "inputs": [
        {
          "name": "_recipient",
          "type": "address"
        },
        {
          "name": "_amount",
          "type": "uint256"
        }
      ],
      "name": "sendEther",
      "outputs": [],
      "payable": false,
      "stateMutability": "nonpayable",
      "type": "function"
    },
    {
      "constant": false,
      "inputs": [
        {
          "name": "_recipient",
          "type": "address"
        },
        {
          "name": "_amount",
          "type": "uint256"
        }
      ],
      "name": "sendYTKN",
      "outputs": [],
      "payable": false,
      "stateMutability": "nonpayable",
      "type": "function"
    }
  ],
  "bytecode": "0x608060405260008060146101000a81548160ff021916908315150217905550336000806101000a81548173ffffffffffffffffffffffffffffffffffffffff021916908373ffffffffffffffffffffffffffffffffffffffff1602179055506113c58061006d6000396000f3006080604052600436106100ba576000357c0100000000000000000000000000000000000000000000000000000000900463ffffffff168063158ef93e146100bc5780633c9a1aa2146100eb578063467967251461014657806367b50af9146101a1578063715018a6146101cc5780637362377b146101e35780638da5cb5b146101fa578063c1756a2c14610251578063c4d66de81461029e578063cd61eb5d146102e1578063e2aedfd71461032e578063f2fde38b14610385575b005b3480156100c857600080fd5b506100d16103c8565b604051808215151515815260200191505060405180910390f35b3480156100f757600080fd5b5061012c600480360381019080803573ffffffffffffffffffffffffffffffffffffffff1690602001909291905050506103db565b604051808215151515815260200191505060405180910390f35b34801561015257600080fd5b50610187600480360381019080803573ffffffffffffffffffffffffffffffffffffffff1690602001909291905050506103fb565b604051808215151515815260200191505060405180910390f35b3480156101ad57600080fd5b506101b661041b565b6040518082815260200191505060405180910390f35b3480156101d857600080fd5b506101e1610422565b005b3480156101ef57600080fd5b506101f8610524565b005b34801561020657600080fd5b5061020f610615565b604051808273ffffffffffffffffffffffffffffffffffffffff1673ffffffffffffffffffffffffffffffffffffffff16815260200191505060405180910390f35b34801561025d57600080fd5b5061029c600480360381019080803573ffffffffffffffffffffffffffffffffffffffff1690602001909291908035906020019092919050505061063a565b005b3480156102aa57600080fd5b506102df600480360381019080803573ffffffffffffffffffffffffffffffffffffffff169060200190929190505050610ad4565b005b3480156102ed57600080fd5b5061032c600480360381019080803573ffffffffffffffffffffffffffffffffffffffff16906020019092919080359060200190929190505050610b7d565b005b34801561033a57600080fd5b5061034361119e565b604051808273ffffffffffffffffffffffffffffffffffffffff1673ffffffffffffffffffffffffffffffffffffffff16815260200191505060405180910390f35b34801561039157600080fd5b506103c6600480360381019080803573ffffffffffffffffffffffffffffffffffffffff1690602001909291905050506111c4565b005b600060149054906101000a900460ff1681565b60026020528060005260406000206000915054906101000a900460ff1681565b60016020528060005260406000206000915054906101000a900460ff1681565b620f424081565b6000809054906101000a900473ffffffffffffffffffffffffffffffffffffffff1673ffffffffffffffffffffffffffffffffffffffff163373ffffffffffffffffffffffffffffffffffffffff1614151561047d57600080fd5b6000809054906101000a900473ffffffffffffffffffffffffffffffffffffffff1673ffffffffffffffffffffffffffffffffffffffff167ff8df31144d9c2f0f6b59d69b8b98abd5459d07f2742c4df920b25aae33c6482060405160405180910390a260008060006101000a81548173ffffffffffffffffffffffffffffffffffffffff021916908373ffffffffffffffffffffffffffffffffffffffff160217905550565b6000809054906101000a900473ffffffffffffffffffffffffffffffffffffffff1673ffffffffffffffffffffffffffffffffffffffff163373ffffffffffffffffffffffffffffffffffffffff1614151561057f57600080fd5b6000809054906101000a900473ffffffffffffffffffffffffffffffffffffffff1673ffffffffffffffffffffffffffffffffffffffff166108fc6105e7620f42403073ffffffffffffffffffffffffffffffffffffffff163161122b90919063ffffffff16565b9081150290604051600060405180830381858888f19350505050158015610612573d6000803e3d6000fd5b50565b6000809054906101000a900473ffffffffffffffffffffffffffffffffffffffff1681565b6000809054906101000a900473ffffffffffffffffffffffffffffffffffffffff1673ffffffffffffffffffffffffffffffffffffffff163373ffffffffffffffffffffffffffffffffffffffff1614151561069557600080fd5b600073ffffffffffffffffffffffffffffffffffffffff168273ffffffffffffffffffffffffffffffffffffffff161415151561073a576040517f08c379a000000000000000000000000000000000000000000000000000000000815260040180806020018281038252601a8152602001807f726563697069656e74206164647265737320697320656d70747900000000000081525060200191505060405180910390fd5b600160008373ffffffffffffffffffffffffffffffffffffffff1673ffffffffffffffffffffffffffffffffffffffff16815260200190815260200160002060009054906101000a900460ff16151515610822576040517f08c379a00000000000000000000000000000000000000000000000000000000081526004018080602001828103825260248152602001807f726563697069656e742068617320616c7265616479207265636569766564206581526020017f746865720000000000000000000000000000000000000000000000000000000081525060400191505060405180910390fd5b60008111151561089a576040517f08c379a00000000000000000000000000000000000000000000000000000000081526004018080602001828103825260178152602001807f616d6f756e74206d75737420626520706f73697469766500000000000000000081525060200191505060405180910390fd5b670de0b6b3a76400008111151515610940576040517f08c379a00000000000000000000000000000000000000000000000000000000081526004018080602001828103825260248152602001807f616d6f756e74206d7573742062652062656c6f7720746865207570706572206c81526020017f696d69740000000000000000000000000000000000000000000000000000000081525060400191505060405180910390fd5b610956620f42408261124490919063ffffffff16565b3073ffffffffffffffffffffffffffffffffffffffff1631101515156109e4576040517f08c379a00000000000000000000000000000000000000000000000000000000081526004018080602001828103825260198152602001807f636f6e7472616374206973206f7574206f66206574686572210000000000000081525060200191505060405180910390fd5b60018060008473ffffffffffffffffffffffffffffffffffffffff1673ffffffffffffffffffffffffffffffffffffffff16815260200190815260200160002060006101000a81548160ff0219169083151502179055508173ffffffffffffffffffffffffffffffffffffffff167f6109e2559dfa766aaec7118351d48a523f0a4157f49c8d68749c8ac41318ad12826040518082815260200191505060405180910390a28173ffffffffffffffffffffffffffffffffffffffff166108fc829081150290604051600060405180830381858888f19350505050158015610acf573d6000803e3d6000fd5b505050565b600060149054906101000a900460ff16151515610af057600080fd5b610af8611260565b50336000806101000a81548173ffffffffffffffffffffffffffffffffffffffff021916908373ffffffffffffffffffffffffffffffffffffffff16021790555080600360006101000a81548173ffffffffffffffffffffffffffffffffffffffff021916908373ffffffffffffffffffffffffffffffffffffffff16021790555050565b6000809054906101000a900473ffffffffffffffffffffffffffffffffffffffff1673ffffffffffffffffffffffffffffffffffffffff163373ffffffffffffffffffffffffffffffffffffffff16141515610bd857600080fd5b600073ffffffffffffffffffffffffffffffffffffffff168273ffffffffffffffffffffffffffffffffffffffff1614151515610c7d576040517f08c379a000000000000000000000000000000000000000000000000000000000815260040180806020018281038252601a8152602001807f726563697069656e74206164647265737320697320656d70747900000000000081525060200191505060405180910390fd5b600260008373ffffffffffffffffffffffffffffffffffffffff1673ffffffffffffffffffffffffffffffffffffffff16815260200190815260200160002060009054906101000a900460ff16151515610d65576040517f08c379a00000000000000000000000000000000000000000000000000000000081526004018080602001828103825260238152602001807f726563697069656e742068617320616c7265616479207265636569766564205981526020017f544b4e000000000000000000000000000000000000000000000000000000000081525060400191505060405180910390fd5b600081111515610ddd576040517f08c379a00000000000000000000000000000000000000000000000000000000081526004018080602001828103825260178152602001807f616d6f756e74206d75737420626520706f73697469766500000000000000000081525060200191505060405180910390fd5b681b1ae4d6e2ef5000008111151515610e84576040517f08c379a00000000000000000000000000000000000000000000000000000000081526004018080602001828103825260248152602001807f616d6f756e74206d7573742062652062656c6f7720746865207570706572206c81526020017f696d69740000000000000000000000000000000000000000000000000000000081525060400191505060405180910390fd5b80600360009054906101000a900473ffffffffffffffffffffffffffffffffffffffff1673ffffffffffffffffffffffffffffffffffffffff166370a08231306040518263ffffffff167c0100000000000000000000000000000000000000000000000000000000028152600401808273ffffffffffffffffffffffffffffffffffffffff1673ffffffffffffffffffffffffffffffffffffffff168152602001915050602060405180830381600087803b158015610f4257600080fd5b505af1158015610f56573d6000803e3d6000fd5b505050506040513d6020811015610f6c57600080fd5b810190808051906020019092919050505010151515610ff3576040517f08c379a00000000000000000000000000000000000000000000000000000000081526004018080602001828103825260188152602001807f636f6e7472616374206973206f7574206f662059544b4e21000000000000000081525060200191505060405180910390fd5b6001600260008473ffffffffffffffffffffffffffffffffffffffff1673ffffffffffffffffffffffffffffffffffffffff16815260200190815260200160002060006101000a81548160ff0219169083151502179055508173ffffffffffffffffffffffffffffffffffffffff167fe161e33a98306eab7f956dafdb57842fb95a955c7fe8dc678531e06a3dcedc9e826040518082815260200191505060405180910390a2600360009054906101000a900473ffffffffffffffffffffffffffffffffffffffff1673ffffffffffffffffffffffffffffffffffffffff1663a9059cbb83836040518363ffffffff167c0100000000000000000000000000000000000000000000000000000000028152600401808373ffffffffffffffffffffffffffffffffffffffff1673ffffffffffffffffffffffffffffffffffffffff16815260200182815260200192505050602060405180830381600087803b15801561115e57600080fd5b505af1158015611172573d6000803e3d6000fd5b505050506040513d602081101561118857600080fd5b8101908080519060200190929190505050505050565b600360009054906101000a900473ffffffffffffffffffffffffffffffffffffffff1681565b6000809054906101000a900473ffffffffffffffffffffffffffffffffffffffff1673ffffffffffffffffffffffffffffffffffffffff163373ffffffffffffffffffffffffffffffffffffffff1614151561121f57600080fd5b6112288161129f565b50565b600082821115151561123957fe5b818303905092915050565b6000818301905082811015151561125757fe5b80905092915050565b60008060149054906101000a900460ff1615151561127d57600080fd5b6001600060146101000a81548160ff0219169083151502179055506001905090565b600073ffffffffffffffffffffffffffffffffffffffff168173ffffffffffffffffffffffffffffffffffffffff16141515156112db57600080fd5b8073ffffffffffffffffffffffffffffffffffffffff166000809054906101000a900473ffffffffffffffffffffffffffffffffffffffff1673ffffffffffffffffffffffffffffffffffffffff167f8be0079c531659141344cd1fd0a4f28419497f9722a3daafe3b4186f6b6457e060405160405180910390a3806000806101000a81548173ffffffffffffffffffffffffffffffffffffffff021916908373ffffffffffffffffffffffffffffffffffffffff160217905550505600a165627a7a72305820fe097d919b9401a854f664cbc1bafbdcb0e4dcb04b688c58e9d4a7d9f0f78e460029",
  "source": "pragma solidity ^0.4.23;\n\nimport \"zeppelin-solidity/contracts/ownership/Ownable.sol\";\nimport \"./Initializable.sol\";\nimport \"./YTKNToken.sol\";\n\ncontract BetaFaucet is Ownable, Initializable {\n  // Keep track of which Ethereum addresses we've sent Ether and our YTKN ERC20 token to\n  mapping (address => bool) public sentEtherAddresses;\n  mapping (address => bool) public sentYTKNAddresses;\n\n  // Amount of gas we want to account for when doing require() checks\n  uint256 public constant gasAmount = 1000000;\n\n  event EtherSent(address indexed recipient, uint256 value);\n  event YTKNSent(address indexed recipient, uint256 value);\n\n  // A reference to your deployed token contract\n  YTKNToken public ytknToken;\n\n  // Provides a better way to do calculations via .add(), .sub(), etc.\n  using SafeMath for uint256;\n\n  // Constructor which allows us to fund contract on creation\n  constructor() public payable {\n  }\n\n  // `fallback` function called when eth is sent to this contract\n  function () payable {\n  }\n\n  /**\n   * @dev - Creates a new BetaFaucet contract with the given parameters\n   * @param _ytknToken - the address of the previously deployed YTKN token contract\n   */\n  function initialize(YTKNToken _ytknToken) external notInitialized {\n    setInitialized();\n    owner = msg.sender;\n    ytknToken = _ytknToken;\n  }\n\n  function withdrawEther() external onlyOwner {\n    owner.transfer(address(this).balance.sub(gasAmount));\n  }\n\n  function sendEther(address _recipient, uint256 _amount) public onlyOwner {\n    require(_recipient != address(0), \"recipient address is empty\");\n    require(!sentEtherAddresses[_recipient], \"recipient has already received ether\");\n    require(_amount > 0, \"amount must be positive\");\n    require(_amount <= 1 ether, \"amount must be below the upper limit\");\n    require(address(this).balance >= _amount.add(gasAmount), \"contract is out of ether!\");\n\n    sentEtherAddresses[_recipient] = true;\n    emit EtherSent(_recipient, _amount);\n\n    _recipient.transfer(_amount);\n  }\n\n  function sendYTKN(address _recipient, uint256 _amount) public onlyOwner {\n    require(_recipient != address(0), \"recipient address is empty\");\n    require(!sentYTKNAddresses[_recipient], \"recipient has already received YTKN\");\n    require(_amount > 0, \"amount must be positive\");\n    require(_amount <= 500 ether, \"amount must be below the upper limit\");\n    require(ytknToken.balanceOf(address(this)) >= _amount, \"contract is out of YTKN!\");\n\n    sentYTKNAddresses[_recipient] = true;\n    emit YTKNSent(_recipient, _amount);\n\n    ytknToken.transfer(_recipient, _amount);\n  }\n}\n",
  "sourcePath": "/Users/chuckbergeron/Git/blockchain/medcredits/dapp-beta-faucet/contracts/BetaFaucet.sol",
  "compiler": {
    "name": "solc",
    "version": "0.4.24+commit.e67f0147.Emscripten.clang"
  },
  "schemaVersion": "2.0.1",
  "updatedAt": "2018-07-31T18:02:34.854Z"
}